{
  "contractName": "Administrators",
  "abi": [
    {
      "inputs": [],
      "payable": false,
      "stateMutability": "nonpayable",
      "type": "constructor"
    },
    {
      "constant": false,
      "inputs": [
        {
          "internalType": "address",
          "name": "a",
          "type": "address"
        }
      ],
      "name": "addTeacher",
      "outputs": [],
      "payable": false,
      "stateMutability": "nonpayable",
      "type": "function"
    },
    {
      "constant": true,
      "inputs": [
        {
          "internalType": "address",
          "name": "a",
          "type": "address"
        }
      ],
      "name": "isTeacher",
      "outputs": [
        {
          "internalType": "bool",
          "name": "",
          "type": "bool"
        }
      ],
      "payable": false,
      "stateMutability": "view",
      "type": "function"
    },
    {
      "constant": false,
      "inputs": [
        {
          "internalType": "address",
          "name": "a",
          "type": "address"
        }
      ],
      "name": "removeTeacher",
      "outputs": [],
      "payable": false,
      "stateMutability": "nonpayable",
      "type": "function"
    },
    {
      "constant": false,
      "inputs": [
        {
          "internalType": "address",
          "name": "a",
          "type": "address"
        }
      ],
      "name": "addAdmin",
      "outputs": [],
      "payable": false,
      "stateMutability": "nonpayable",
      "type": "function"
    },
    {
      "constant": true,
      "inputs": [
        {
          "internalType": "address",
          "name": "a",
          "type": "address"
        }
      ],
      "name": "isAdmin",
      "outputs": [
        {
          "internalType": "bool",
          "name": "",
          "type": "bool"
        }
      ],
      "payable": false,
      "stateMutability": "view",
      "type": "function"
    },
    {
      "constant": false,
      "inputs": [
        {
          "internalType": "address",
          "name": "a",
          "type": "address"
        }
      ],
      "name": "removeAdmin",
      "outputs": [],
      "payable": false,
      "stateMutability": "nonpayable",
      "type": "function"
    }
  ],
  "bytecode": "0x608060405234801561001057600080fd5b50336000908152600160208190526040909120805460ff1916909117905561039f8061003d6000396000f3fe608060405234801561001057600080fd5b50600436106100625760003560e01c80631785f53c1461006757806324d7806c1461008f5780633bc6e309146100c957806352ff6846146100ef5780637048027514610115578063aec37eb31461013b575b600080fd5b61008d6004803603602081101561007d57600080fd5b50356001600160a01b0316610161565b005b6100b5600480360360208110156100a557600080fd5b50356001600160a01b03166101ca565b604080519115158252519081900360200190f35b61008d600480360360208110156100df57600080fd5b50356001600160a01b03166101e8565b61008d6004803603602081101561010557600080fd5b50356001600160a01b0316610254565b61008d6004803603602081101561012b57600080fd5b50356001600160a01b03166102bd565b6100b56004803603602081101561015157600080fd5b50356001600160a01b031661032c565b61016a336101ca565b6101a9576040805162461bcd60e51b815260206004820152601d602482015260008051602061034b833981519152604482015290519081900360640190fd5b6001600160a01b03166000908152600160205260409020805460ff19169055565b6001600160a01b031660009081526001602052604090205460ff1690565b6101f1336101ca565b610230576040805162461bcd60e51b815260206004820152601d602482015260008051602061034b833981519152604482015290519081900360640190fd5b6001600160a01b03166000908152602081905260409020805460ff19166001179055565b61025d336101ca565b61029c576040805162461bcd60e51b815260206004820152601d602482015260008051602061034b833981519152604482015290519081900360640190fd5b6001600160a01b03166000908152602081905260409020805460ff19169055565b6102c6336101ca565b610305576040805162461bcd60e51b815260206004820152601d602482015260008051602061034b833981519152604482015290519081900360640190fd5b6001600160a01b03166000908152600160208190526040909120805460ff19169091179055565b6001600160a01b031660009081526020819052604090205460ff169056fe6f6e6c792061646d696e2063616e20646f207468697320616374696f6e000000a265627a7a7231582005273e39d74b59912c8107ca4580b633269d0115d97d13d4fd1cf3a2386f768864736f6c63430005100032",
  "source": "pragma solidity >= 0.5.0 < 0.7.0;\r\n\r\n\r\nimport \"./IAdministrator.sol\";\r\n\r\ncontract Administrators is IAdministrator  {\r\n\r\n\r\n  mapping( address => bool) teachers;\r\n  mapping( address => bool) admins;\r\n\r\n\r\n  \r\n  constructor() public {\r\n   admins [msg.sender]=true;\r\n  }\r\n\r\n  modifier onlyAdmin() {\r\n      require(isAdmin(msg.sender), \"only admin can do this action\");\r\n      _;\r\n  }\r\n\r\n  function addTeacher(address a ) public onlyAdmin{\r\n    teachers[a] = true;\r\n  }\r\n\r\n  function isTeacher(address a ) public view returns (bool)  {\r\n    return teachers[a];\r\n  }\r\n\r\n  function removeTeacher (address a ) public onlyAdmin{\r\n    teachers[a] = false ;\r\n  }\r\n\r\n   function addAdmin(address a) public onlyAdmin {\r\n    admins[a] = true;\r\n  }\r\n\r\n  function isAdmin(address a ) public view returns (bool) {\r\n    return admins[a];\r\n  }\r\n\r\n  function removeAdmin (address a ) public onlyAdmin{\r\n    admins[a] = false ;\r\n  }\r\n\r\n    \r\n\r\n  \r\n}",
  "sourcePath": "/Users/jawaher/Desktop/projet2021/smartcontract/smartcontract/training-contracts/contracts/Administrators.sol",
  "compiler": {
    "name": "solc",
    "version": "0.5.16+commit.9c3226ce.Emscripten.clang"
  },
  "schemaVersion": "3.4.5",
  "updatedAt": "2022-03-09T21:18:59.429Z",
  "networkType": "ethereum",
  "devdoc": {
    "methods": {}
  },
  "userdoc": {
    "methods": {}
  }
}