{
  "contractName": "ReportCard",
  "abi": [
    {
      "inputs": [
        {
          "internalType": "address",
          "name": "admin",
          "type": "address"
        }
      ],
      "payable": false,
      "stateMutability": "nonpayable",
      "type": "constructor"
    },
    {
      "anonymous": false,
      "inputs": [
        {
          "indexed": false,
          "internalType": "uint256",
          "name": "sequence",
          "type": "uint256"
        }
      ],
      "name": "reportCardAdded",
      "type": "event"
    },
    {
      "anonymous": false,
      "inputs": [
        {
          "indexed": false,
          "internalType": "uint256",
          "name": "sequence",
          "type": "uint256"
        }
      ],
      "name": "reportCardUpdated",
      "type": "event"
    },
    {
      "constant": false,
      "inputs": [
        {
          "internalType": "string",
          "name": "a",
          "type": "string"
        }
      ],
      "name": "addReportCard",
      "outputs": [],
      "payable": false,
      "stateMutability": "nonpayable",
      "type": "function"
    },
    {
      "constant": true,
      "inputs": [
        {
          "internalType": "uint256",
          "name": "b",
          "type": "uint256"
        }
      ],
      "name": "getReportCard",
      "outputs": [
        {
          "internalType": "string",
          "name": "",
          "type": "string"
        }
      ],
      "payable": false,
      "stateMutability": "view",
      "type": "function"
    },
    {
      "constant": false,
      "inputs": [
        {
          "internalType": "string",
          "name": "a",
          "type": "string"
        },
        {
          "internalType": "uint256",
          "name": "s",
          "type": "uint256"
        }
      ],
      "name": "updateReportCard",
      "outputs": [],
      "payable": false,
      "stateMutability": "nonpayable",
      "type": "function"
    }
  ],
  "bytecode": "0x608060405234801561001057600080fd5b506040516106473803806106478339818101604052602081101561003357600080fd5b5051600280546001600160a01b0319166001600160a01b03909216919091179055634ac1c3026001556105dc8061006b6000396000f3fe608060405234801561001057600080fd5b50600436106100415760003560e01c806315278407146100465780634725becb146100ee578063eb53d79014610180575b600080fd5b6100ec6004803603602081101561005c57600080fd5b81019060208101813564010000000081111561007757600080fd5b82018360208201111561008957600080fd5b803590602001918460018302840111640100000000831117156100ab57600080fd5b91908080601f016020809104026020016040519081016040528093929190818152602001838380828437600092019190915250929550610228945050505050565b005b61010b6004803603602081101561010457600080fd5b5035610350565b6040805160208082528351818301528351919283929083019185019080838360005b8381101561014557818101518382015260200161012d565b50505050905090810190601f1680156101725780820380516001836020036101000a031916815260200191505b509250505060405180910390f35b6100ec6004803603604081101561019657600080fd5b8101906020810181356401000000008111156101b157600080fd5b8201836020820111156101c357600080fd5b803590602001918460018302840111640100000000831117156101e557600080fd5b91908080601f01602080910402602001604051908101604052809392919081815260200183838082843760009201919091525092955050913592506103ef915050565b6002546040805163aec37eb360e01b815233600482015290516001600160a01b039092169163aec37eb391602480820192602092909190829003018186803b15801561027357600080fd5b505afa158015610287573d6000803e3d6000fd5b505050506040513d602081101561029d57600080fd5b50516102f0576040805162461bcd60e51b815260206004820181905260248201527f6f6e6c792074656163686572732063616e20646f207468697320616374696f6e604482015290519081900360640190fd5b6001805481019081905560009081526020818152604090912082516103179284019061050c565b5060015460408051918252517fd2ca6c262c6244282f2422d584795a914a88050bf63068571b6f81ed83ea40669181900360200190a150565b6000818152602081815260409182902080548351601f60026000196101006001861615020190931692909204918201849004840281018401909452808452606093928301828280156103e35780601f106103b8576101008083540402835291602001916103e3565b820191906000526020600020905b8154815290600101906020018083116103c657829003601f168201915b50505050509050919050565b6002546040805163aec37eb360e01b815233600482015290516001600160a01b039092169163aec37eb391602480820192602092909190829003018186803b15801561043a57600080fd5b505afa15801561044e573d6000803e3d6000fd5b505050506040513d602081101561046457600080fd5b50516104b7576040805162461bcd60e51b815260206004820181905260248201527f6f6e6c792074656163686572732063616e20646f207468697320616374696f6e604482015290519081900360640190fd5b60008181526020818152604090912083516104d49285019061050c565b506040805182815290517f874ef4325c7bf4391fbf16c29a382264b9aff728477cb3ee2e692c7f46a4c5979181900360200190a15050565b828054600181600116156101000203166002900490600052602060002090601f016020900481019282601f1061054d57805160ff191683800117855561057a565b8280016001018555821561057a579182015b8281111561057a57825182559160200191906001019061055f565b5061058692915061058a565b5090565b6105a491905b808211156105865760008155600101610590565b9056fea265627a7a723158200cd2ec017ab8e5e091bae723ea2acfca6ae9694e6a30a68b48e8e78ab8d49bd764736f6c63430005100032",
  "source": "pragma solidity >=0.4.22 <0.9.0;\r\n\r\nimport \"./IAdministrator.sol\";\r\n\r\n\r\ncontract ReportCard {\r\n\r\n\r\n\r\n    mapping ( uint => string) ReportCards ; \r\n\r\n  uint sequence;\r\n  address AdministratorAddress;\r\n  event reportCardAdded(uint sequence);\r\n  event reportCardUpdated(uint sequence );\r\n\r\n\r\n  constructor(address admin ) public {\r\n  \r\n    AdministratorAddress = admin;\r\n    sequence = 1254212354;\r\n  }\r\n\r\n\r\n  modifier onlyTeacher() {\r\n      require(IAdministrator(AdministratorAddress).isTeacher(msg.sender), \"only teachers can do this action\");\r\n      _;\r\n  }\r\n\r\n\r\n\r\n  function addReportCard(string memory a ) public onlyTeacher {\r\n    sequence = sequence + 1;\r\n    //Prescriptions[a] = sequence;\r\n    ReportCards[sequence] = a ;\r\n    emit reportCardAdded(sequence);\r\n  }\r\n\r\n  function getReportCard (uint b ) public view returns (string memory ){\r\n      return ReportCards[b];\r\n  }\r\n\r\n  function updateReportCard(string memory a , uint s) public onlyTeacher {\r\n    ReportCards[s] = a ;\r\n    emit reportCardUpdated(s);\r\n  }\r\n\r\n  \r\n}",
  "sourcePath": "/Users/jawaher/Desktop/projet2021/smartcontract/smartcontract/training-contracts/contracts/ReportCard.sol",
  "compiler": {
    "name": "solc",
    "version": "0.5.16+commit.9c3226ce.Emscripten.clang"
  },
  "schemaVersion": "3.4.5",
  "updatedAt": "2022-03-09T21:18:59.432Z",
  "networkType": "ethereum",
  "devdoc": {
    "methods": {}
  },
  "userdoc": {
    "methods": {}
  }
}